{
  "_format": "hh-sol-artifact-1",
  "contractName": "Notary",
  "sourceName": "contracts/Notary.sol",
  "abi": [
    {
      "anonymous": false,
      "inputs": [
        {
          "indexed": true,
          "internalType": "bytes32",
          "name": "id",
          "type": "bytes32"
        },
        {
          "indexed": false,
          "internalType": "string",
          "name": "title",
          "type": "string"
        },
        {
          "indexed": false,
          "internalType": "string",
          "name": "terms",
          "type": "string"
        },
        {
          "indexed": false,
          "internalType": "address",
          "name": "party1",
          "type": "address"
        },
        {
          "indexed": false,
          "internalType": "address",
          "name": "party2",
          "type": "address"
        }
      ],
      "name": "AgreementCreated",
      "type": "event"
    },
    {
      "anonymous": false,
      "inputs": [
        {
          "indexed": true,
          "internalType": "bytes32",
          "name": "id",
          "type": "bytes32"
        },
        {
          "indexed": false,
          "internalType": "address",
          "name": "signer",
          "type": "address"
        }
      ],
      "name": "AgreementSigned",
      "type": "event"
    },
    {
      "inputs": [
        {
          "internalType": "bytes32",
          "name": "_id",
          "type": "bytes32"
        },
        {
          "internalType": "string",
          "name": "_title",
          "type": "string"
        },
        {
          "internalType": "string",
          "name": "_terms",
          "type": "string"
        },
        {
          "internalType": "address",
          "name": "_party1",
          "type": "address"
        },
        {
          "internalType": "address",
          "name": "_party2",
          "type": "address"
        }
      ],
      "name": "createAgreement",
      "outputs": [],
      "stateMutability": "nonpayable",
      "type": "function"
    },
    {
      "inputs": [
        {
          "internalType": "bytes32",
          "name": "_id",
          "type": "bytes32"
        }
      ],
      "name": "getAgreement",
      "outputs": [
        {
          "internalType": "string",
          "name": "title",
          "type": "string"
        },
        {
          "internalType": "string",
          "name": "terms",
          "type": "string"
        },
        {
          "internalType": "address",
          "name": "party1",
          "type": "address"
        },
        {
          "internalType": "address",
          "name": "party2",
          "type": "address"
        },
        {
          "internalType": "bool",
          "name": "signed1",
          "type": "bool"
        },
        {
          "internalType": "bool",
          "name": "signed2",
          "type": "bool"
        }
      ],
      "stateMutability": "view",
      "type": "function"
    },
    {
      "inputs": [
        {
          "internalType": "bytes32",
          "name": "_id",
          "type": "bytes32"
        },
        {
          "internalType": "address",
          "name": "_signer",
          "type": "address"
        }
      ],
      "name": "getSignature",
      "outputs": [
        {
          "internalType": "bytes",
          "name": "",
          "type": "bytes"
        }
      ],
      "stateMutability": "view",
      "type": "function"
    },
    {
      "inputs": [
        {
          "internalType": "bytes32",
          "name": "_id",
          "type": "bytes32"
        },
        {
          "internalType": "bytes",
          "name": "_signature",
          "type": "bytes"
        }
      ],
      "name": "signAgreement",
      "outputs": [],
      "stateMutability": "nonpayable",
      "type": "function"
    },
    {
      "inputs": [
        {
          "internalType": "bytes32",
          "name": "_id",
          "type": "bytes32"
        }
      ],
      "name": "verifySignatures",
      "outputs": [
        {
          "internalType": "bool",
          "name": "",
          "type": "bool"
        }
      ],
      "stateMutability": "view",
      "type": "function"
    }
  ],
  "bytecode": "0x608060405234801561001057600080fd5b506118a4806100206000396000f3fe608060405234801561001057600080fd5b50600436106100575760003560e01c80630dbf1afd1461005c57806379e5919c1461008c578063a4331d0b146100a8578063f42eb765146100c4578063f8eb63da146100f9575b600080fd5b61007660048036038101906100719190610b40565b610129565b6040516100839190610b88565b60405180910390f35b6100a660048036038101906100a19190610d47565b6101bd565b005b6100c260048036038101906100bd9190610e9b565b61053b565b005b6100de60048036038101906100d99190610b40565b610807565b6040516100f096959493929190610f85565b60405180910390f35b610113600480360381019061010e9190610ff4565b610a13565b6040516101209190611089565b60405180910390f35b60008060008084815260200190815260200160002090506000801b816000015403610189576040517f08c379a0000000000000000000000000000000000000000000000000000000008152600401610180906110f7565b60405180910390fd5b8060040160149054906101000a900460ff1680156101b557508060040160159054906101000a900460ff165b915050919050565b600073ffffffffffffffffffffffffffffffffffffffff168273ffffffffffffffffffffffffffffffffffffffff16141580156102275750600073ffffffffffffffffffffffffffffffffffffffff168173ffffffffffffffffffffffffffffffffffffffff1614155b610266576040517f08c379a000000000000000000000000000000000000000000000000000000000815260040161025d90611163565b60405180910390fd5b8073ffffffffffffffffffffffffffffffffffffffff168273ffffffffffffffffffffffffffffffffffffffff16036102d4576040517f08c379a00000000000000000000000000000000000000000000000000000000081526004016102cb906111f5565b60405180910390fd5b600073ffffffffffffffffffffffffffffffffffffffff1660008087815260200190815260200160002060030160009054906101000a900473ffffffffffffffffffffffffffffffffffffffff1673ffffffffffffffffffffffffffffffffffffffff1614610378576040517f08c379a000000000000000000000000000000000000000000000000000000000815260040161036f90611261565b60405180910390fd5b6040518060e001604052808681526020018581526020018481526020018373ffffffffffffffffffffffffffffffffffffffff1681526020018273ffffffffffffffffffffffffffffffffffffffff1681526020016000151581526020016000151581525060008087815260200190815260200160002060008201518160000155602082015181600101908161040e9190611497565b5060408201518160020190816104249190611497565b5060608201518160030160006101000a81548173ffffffffffffffffffffffffffffffffffffffff021916908373ffffffffffffffffffffffffffffffffffffffff16021790555060808201518160040160006101000a81548173ffffffffffffffffffffffffffffffffffffffff021916908373ffffffffffffffffffffffffffffffffffffffff16021790555060a08201518160040160146101000a81548160ff02191690831515021790555060c08201518160040160156101000a81548160ff021916908315150217905550905050847fe193031414adb21e83b444a4e2ba33ea48f9ff27835fbaaa651d29d800007df88585858560405161052c9493929190611569565b60405180910390a25050505050565b600080600084815260200190815260200160002090506000801b81600001540361059a576040517f08c379a0000000000000000000000000000000000000000000000000000000008152600401610591906110f7565b60405180910390fd5b8060030160009054906101000a900473ffffffffffffffffffffffffffffffffffffffff1673ffffffffffffffffffffffffffffffffffffffff163373ffffffffffffffffffffffffffffffffffffffff1603610665578060040160149054906101000a900460ff1615610643576040517f08c379a000000000000000000000000000000000000000000000000000000000815260040161063a90611608565b60405180910390fd5b60018160040160146101000a81548160ff02191690831515021790555061076c565b8060040160009054906101000a900473ffffffffffffffffffffffffffffffffffffffff1673ffffffffffffffffffffffffffffffffffffffff163373ffffffffffffffffffffffffffffffffffffffff1603610730578060040160159054906101000a900460ff161561070e576040517f08c379a000000000000000000000000000000000000000000000000000000000815260040161070590611674565b60405180910390fd5b60018160040160156101000a81548160ff02191690831515021790555061076b565b6040517f08c379a000000000000000000000000000000000000000000000000000000000815260040161076290611706565b60405180910390fd5b5b816001600085815260200190815260200160002060003373ffffffffffffffffffffffffffffffffffffffff1673ffffffffffffffffffffffffffffffffffffffff16815260200190815260200160002090816107c99190611781565b50827f8da88eddfc3610da580ea46fb6b9ef17717cd3e45052b48b14bf8c37227d664b336040516107fa9190611853565b60405180910390a2505050565b606080600080600080600080600089815260200190815260200160002090506000801b81600001540361086f576040517f08c379a0000000000000000000000000000000000000000000000000000000008152600401610866906110f7565b60405180910390fd5b80600101816002018260030160009054906101000a900473ffffffffffffffffffffffffffffffffffffffff168360040160009054906101000a900473ffffffffffffffffffffffffffffffffffffffff168460040160149054906101000a900460ff168560040160159054906101000a900460ff168580546108f1906112b0565b80601f016020809104026020016040519081016040528092919081815260200182805461091d906112b0565b801561096a5780601f1061093f5761010080835404028352916020019161096a565b820191906000526020600020905b81548152906001019060200180831161094d57829003601f168201915b5050505050955084805461097d906112b0565b80601f01602080910402602001604051908101604052809291908181526020018280546109a9906112b0565b80156109f65780601f106109cb576101008083540402835291602001916109f6565b820191906000526020600020905b8154815290600101906020018083116109d957829003601f168201915b505050505094509650965096509650965096505091939550919395565b60606001600084815260200190815260200160002060008373ffffffffffffffffffffffffffffffffffffffff1673ffffffffffffffffffffffffffffffffffffffff1681526020019081526020016000208054610a70906112b0565b80601f0160208091040260200160405190810160405280929190818152602001828054610a9c906112b0565b8015610ae95780601f10610abe57610100808354040283529160200191610ae9565b820191906000526020600020905b815481529060010190602001808311610acc57829003601f168201915b5050505050905092915050565b6000604051905090565b600080fd5b600080fd5b6000819050919050565b610b1d81610b0a565b8114610b2857600080fd5b50565b600081359050610b3a81610b14565b92915050565b600060208284031215610b5657610b55610b00565b5b6000610b6484828501610b2b565b91505092915050565b60008115159050919050565b610b8281610b6d565b82525050565b6000602082019050610b9d6000830184610b79565b92915050565b600080fd5b600080fd5b6000601f19601f8301169050919050565b7f4e487b7100000000000000000000000000000000000000000000000000000000600052604160045260246000fd5b610bf682610bad565b810181811067ffffffffffffffff82111715610c1557610c14610bbe565b5b80604052505050565b6000610c28610af6565b9050610c348282610bed565b919050565b600067ffffffffffffffff821115610c5457610c53610bbe565b5b610c5d82610bad565b9050602081019050919050565b82818337600083830152505050565b6000610c8c610c8784610c39565b610c1e565b905082815260208101848484011115610ca857610ca7610ba8565b5b610cb3848285610c6a565b509392505050565b600082601f830112610cd057610ccf610ba3565b5b8135610ce0848260208601610c79565b91505092915050565b600073ffffffffffffffffffffffffffffffffffffffff82169050919050565b6000610d1482610ce9565b9050919050565b610d2481610d09565b8114610d2f57600080fd5b50565b600081359050610d4181610d1b565b92915050565b600080600080600060a08688031215610d6357610d62610b00565b5b6000610d7188828901610b2b565b955050602086013567ffffffffffffffff811115610d9257610d91610b05565b5b610d9e88828901610cbb565b945050604086013567ffffffffffffffff811115610dbf57610dbe610b05565b5b610dcb88828901610cbb565b9350506060610ddc88828901610d32565b9250506080610ded88828901610d32565b9150509295509295909350565b600067ffffffffffffffff821115610e1557610e14610bbe565b5b610e1e82610bad565b9050602081019050919050565b6000610e3e610e3984610dfa565b610c1e565b905082815260208101848484011115610e5a57610e59610ba8565b5b610e65848285610c6a565b509392505050565b600082601f830112610e8257610e81610ba3565b5b8135610e92848260208601610e2b565b91505092915050565b60008060408385031215610eb257610eb1610b00565b5b6000610ec085828601610b2b565b925050602083013567ffffffffffffffff811115610ee157610ee0610b05565b5b610eed85828601610e6d565b9150509250929050565b600081519050919050565b600082825260208201905092915050565b60005b83811015610f31578082015181840152602081019050610f16565b60008484015250505050565b6000610f4882610ef7565b610f528185610f02565b9350610f62818560208601610f13565b610f6b81610bad565b840191505092915050565b610f7f81610d09565b82525050565b600060c0820190508181036000830152610f9f8189610f3d565b90508181036020830152610fb38188610f3d565b9050610fc26040830187610f76565b610fcf6060830186610f76565b610fdc6080830185610b79565b610fe960a0830184610b79565b979650505050505050565b6000806040838503121561100b5761100a610b00565b5b600061101985828601610b2b565b925050602061102a85828601610d32565b9150509250929050565b600081519050919050565b600082825260208201905092915050565b600061105b82611034565b611065818561103f565b9350611075818560208601610f13565b61107e81610bad565b840191505092915050565b600060208201905081810360008301526110a38184611050565b905092915050565b7f41677265656d656e74206e6f7420666f756e6400000000000000000000000000600082015250565b60006110e1601383610f02565b91506110ec826110ab565b602082019050919050565b60006020820190508181036000830152611110816110d4565b9050919050565b7f496e76616c696420706172747920616464726573730000000000000000000000600082015250565b600061114d601583610f02565b915061115882611117565b602082019050919050565b6000602082019050818103600083015261117c81611140565b9050919050565b7f626f68742074686520616464726573732073686f756c6420626520646966666560008201527f72656e7400000000000000000000000000000000000000000000000000000000602082015250565b60006111df602483610f02565b91506111ea82611183565b604082019050919050565b6000602082019050818103600083015261120e816111d2565b9050919050565b7f41677265656d656e7420616c7265616479206578697374730000000000000000600082015250565b600061124b601883610f02565b915061125682611215565b602082019050919050565b6000602082019050818103600083015261127a8161123e565b9050919050565b7f4e487b7100000000000000000000000000000000000000000000000000000000600052602260045260246000fd5b600060028204905060018216806112c857607f821691505b6020821081036112db576112da611281565b5b50919050565b60008190508160005260206000209050919050565b60006020601f8301049050919050565b600082821b905092915050565b6000600883026113437fffffffffffffffffffffffffffffffffffffffffffffffffffffffffffffffff82611306565b61134d8683611306565b95508019841693508086168417925050509392505050565b6000819050919050565b6000819050919050565b600061139461138f61138a84611365565b61136f565b611365565b9050919050565b6000819050919050565b6113ae83611379565b6113c26113ba8261139b565b848454611313565b825550505050565b600090565b6113d76113ca565b6113e28184846113a5565b505050565b5b81811015611406576113fb6000826113cf565b6001810190506113e8565b5050565b601f82111561144b5761141c816112e1565b611425846112f6565b81016020851015611434578190505b611448611440856112f6565b8301826113e7565b50505b505050565b600082821c905092915050565b600061146e60001984600802611450565b1980831691505092915050565b6000611487838361145d565b9150826002028217905092915050565b6114a082610ef7565b67ffffffffffffffff8111156114b9576114b8610bbe565b5b6114c382546112b0565b6114ce82828561140a565b600060209050601f83116001811461150157600084156114ef578287015190505b6114f9858261147b565b865550611561565b601f19841661150f866112e1565b60005b8281101561153757848901518255600182019150602085019450602081019050611512565b868310156115545784890151611550601f89168261145d565b8355505b6001600288020188555050505b505050505050565b600060808201905081810360008301526115838187610f3d565b905081810360208301526115978186610f3d565b90506115a66040830185610f76565b6115b36060830184610f76565b95945050505050565b7f506172747920312068617320616c7265616479207369676e6564000000000000600082015250565b60006115f2601a83610f02565b91506115fd826115bc565b602082019050919050565b60006020820190508181036000830152611621816115e5565b9050919050565b7f506172747920322068617320616c7265616479207369676e6564000000000000600082015250565b600061165e601a83610f02565b915061166982611628565b602082019050919050565b6000602082019050818103600083015261168d81611651565b9050919050565b7f596f7520617265206e6f74206120706172747920746f2074686973206167726560008201527f656d656e74000000000000000000000000000000000000000000000000000000602082015250565b60006116f0602583610f02565b91506116fb82611694565b604082019050919050565b6000602082019050818103600083015261171f816116e3565b9050919050565b60008190508160005260206000209050919050565b601f82111561177c5761174d81611726565b611756846112f6565b81016020851015611765578190505b611779611771856112f6565b8301826113e7565b50505b505050565b61178a82611034565b67ffffffffffffffff8111156117a3576117a2610bbe565b5b6117ad82546112b0565b6117b882828561173b565b600060209050601f8311600181146117eb57600084156117d9578287015190505b6117e3858261147b565b86555061184b565b601f1984166117f986611726565b60005b82811015611821578489015182556001820191506020850194506020810190506117fc565b8683101561183e578489015161183a601f89168261145d565b8355505b6001600288020188555050505b505050505050565b60006020820190506118686000830184610f76565b9291505056fea2646970667358221220b1aadc5cafbe6ef7531b0d42f14e5ca2c090da4427ad2d0b3684e8adaf1e5f1364736f6c63430008130033",
  "linkReferences": {},
  "deployedLinkReferences": {}
}