{
  "_format": "hh-sol-artifact-1",
  "contractName": "NotaryUpgraded",
  "sourceName": "contracts/NotaryUpgraded.sol",
  "abi": [
    {
      "inputs": [],
      "stateMutability": "nonpayable",
      "type": "constructor"
    },
    {
      "inputs": [
        {
          "internalType": "address",
          "name": "_mod",
          "type": "address"
        }
      ],
      "name": "addMods",
      "outputs": [],
      "stateMutability": "nonpayable",
      "type": "function"
    },
    {
      "inputs": [
        {
          "internalType": "string",
          "name": "_ipfsString",
          "type": "string"
        },
        {
          "internalType": "address",
          "name": "_signer",
          "type": "address"
        }
      ],
      "name": "attestDoc",
      "outputs": [],
      "stateMutability": "nonpayable",
      "type": "function"
    },
    {
      "inputs": [
        {
          "internalType": "address",
          "name": "_mod",
          "type": "address"
        }
      ],
      "name": "deleteMod",
      "outputs": [],
      "stateMutability": "nonpayable",
      "type": "function"
    },
    {
      "inputs": [],
      "name": "moddersList",
      "outputs": [
        {
          "internalType": "address[]",
          "name": "_moddersList",
          "type": "address[]"
        }
      ],
      "stateMutability": "view",
      "type": "function"
    },
    {
      "inputs": [
        {
          "internalType": "address",
          "name": "_signer",
          "type": "address"
        }
      ],
      "name": "retrieveDocs",
      "outputs": [
        {
          "components": [
            {
              "internalType": "string",
              "name": "ipfsString",
              "type": "string"
            },
            {
              "internalType": "address",
              "name": "signer",
              "type": "address"
            },
            {
              "internalType": "uint256",
              "name": "timestamp",
              "type": "uint256"
            }
          ],
          "internalType": "struct NotaryUpgraded.DocDetails[]",
          "name": "",
          "type": "tuple[]"
        }
      ],
      "stateMutability": "view",
      "type": "function"
    }
  ],
  "bytecode": "0x608060405234801561001057600080fd5b50336000806101000a81548173ffffffffffffffffffffffffffffffffffffffff021916908373ffffffffffffffffffffffffffffffffffffffff1602179055506113e6806100606000396000f3fe608060405234801561001057600080fd5b50600436106100575760003560e01c8063453eb2bf1461005c578063655315641461008c5780637b4575bc146100a8578063accdf01e146100c4578063f20c31b1146100e2575b600080fd5b610076600480360381019061007191906109d3565b6100fe565b6040516100839190610bca565b60405180910390f35b6100a660048036038101906100a191906109d3565b61028e565b005b6100c260048036038101906100bd9190610d21565b610585565b005b6100cc6106d9565b6040516100d99190610e2c565b60405180910390f35b6100fc60048036038101906100f791906109d3565b610767565b005b6060600260008373ffffffffffffffffffffffffffffffffffffffff1673ffffffffffffffffffffffffffffffffffffffff168152602001908152602001600020805480602002602001604051908101604052809291908181526020016000905b82821015610283578382906000526020600020906003020160405180606001604052908160008201805461019290610e7d565b80601f01602080910402602001604051908101604052809291908181526020018280546101be90610e7d565b801561020b5780601f106101e05761010080835404028352916020019161020b565b820191906000526020600020905b8154815290600101906020018083116101ee57829003601f168201915b505050505081526020016001820160009054906101000a900473ffffffffffffffffffffffffffffffffffffffff1673ffffffffffffffffffffffffffffffffffffffff1673ffffffffffffffffffffffffffffffffffffffff1681526020016002820154815250508152602001906001019061015f565b505050509050919050565b3373ffffffffffffffffffffffffffffffffffffffff1660008054906101000a900473ffffffffffffffffffffffffffffffffffffffff1673ffffffffffffffffffffffffffffffffffffffff161461031c576040517f08c379a000000000000000000000000000000000000000000000000000000000815260040161031390610f31565b60405180910390fd5b600360008273ffffffffffffffffffffffffffffffffffffffff1673ffffffffffffffffffffffffffffffffffffffff16815260200190815260200160002060009054906101000a900460ff166103a8576040517f08c379a000000000000000000000000000000000000000000000000000000000815260040161039f90610f9d565b60405180910390fd5b600360008273ffffffffffffffffffffffffffffffffffffffff1673ffffffffffffffffffffffffffffffffffffffff16815260200190815260200160002060006101000a81549060ff021916905560005b600180549050811015610581578173ffffffffffffffffffffffffffffffffffffffff166001828154811061043257610431610fbd565b5b9060005260206000200160009054906101000a900473ffffffffffffffffffffffffffffffffffffffff1673ffffffffffffffffffffffffffffffffffffffff160361056e57600180808054905061048a919061101b565b8154811061049b5761049a610fbd565b5b9060005260206000200160009054906101000a900473ffffffffffffffffffffffffffffffffffffffff16600182815481106104da576104d9610fbd565b5b9060005260206000200160006101000a81548173ffffffffffffffffffffffffffffffffffffffff021916908373ffffffffffffffffffffffffffffffffffffffff16021790555060018054806105345761053361104f565b5b6001900381819060005260206000200160006101000a81549073ffffffffffffffffffffffffffffffffffffffff02191690559055610581565b80806105799061107e565b9150506103fa565b5050565b61058e336108b3565b6105cd576040517f08c379a00000000000000000000000000000000000000000000000000000000081526004016105c490611112565b60405180910390fd5b600060405180606001604052808481526020018373ffffffffffffffffffffffffffffffffffffffff168152602001428152509050600260008373ffffffffffffffffffffffffffffffffffffffff1673ffffffffffffffffffffffffffffffffffffffff168152602001908152602001600020819080600181540180825580915050600190039060005260206000209060030201600090919091909150600082015181600001908161068091906112de565b5060208201518160010160006101000a81548173ffffffffffffffffffffffffffffffffffffffff021916908373ffffffffffffffffffffffffffffffffffffffff160217905550604082015181600201555050505050565b6060600180548060200260200160405190810160405280929190818152602001828054801561075d57602002820191906000526020600020905b8160009054906101000a900473ffffffffffffffffffffffffffffffffffffffff1673ffffffffffffffffffffffffffffffffffffffff1681526020019060010190808311610713575b5050505050905090565b3373ffffffffffffffffffffffffffffffffffffffff1660008054906101000a900473ffffffffffffffffffffffffffffffffffffffff1673ffffffffffffffffffffffffffffffffffffffff16146107f5576040517f08c379a00000000000000000000000000000000000000000000000000000000081526004016107ec90610f31565b60405180910390fd5b6001600360008373ffffffffffffffffffffffffffffffffffffffff1673ffffffffffffffffffffffffffffffffffffffff16815260200190815260200160002060006101000a81548160ff0219169083151502179055506001819080600181540180825580915050600190039060005260206000200160009091909190916101000a81548173ffffffffffffffffffffffffffffffffffffffff021916908373ffffffffffffffffffffffffffffffffffffffff16021790555050565b600080600090505b600180549050811015610956578273ffffffffffffffffffffffffffffffffffffffff16600182815481106108f3576108f2610fbd565b5b9060005260206000200160009054906101000a900473ffffffffffffffffffffffffffffffffffffffff1673ffffffffffffffffffffffffffffffffffffffff160361094357600191505061095c565b808061094e9061107e565b9150506108bb565b50600090505b919050565b6000604051905090565b600080fd5b600080fd5b600073ffffffffffffffffffffffffffffffffffffffff82169050919050565b60006109a082610975565b9050919050565b6109b081610995565b81146109bb57600080fd5b50565b6000813590506109cd816109a7565b92915050565b6000602082840312156109e9576109e861096b565b5b60006109f7848285016109be565b91505092915050565b600081519050919050565b600082825260208201905092915050565b6000819050602082019050919050565b600081519050919050565b600082825260208201905092915050565b60005b83811015610a66578082015181840152602081019050610a4b565b60008484015250505050565b6000601f19601f8301169050919050565b6000610a8e82610a2c565b610a988185610a37565b9350610aa8818560208601610a48565b610ab181610a72565b840191505092915050565b610ac581610995565b82525050565b6000819050919050565b610ade81610acb565b82525050565b60006060830160008301518482036000860152610b018282610a83565b9150506020830151610b166020860182610abc565b506040830151610b296040860182610ad5565b508091505092915050565b6000610b408383610ae4565b905092915050565b6000602082019050919050565b6000610b6082610a00565b610b6a8185610a0b565b935083602082028501610b7c85610a1c565b8060005b85811015610bb85784840389528151610b998582610b34565b9450610ba483610b48565b925060208a01995050600181019050610b80565b50829750879550505050505092915050565b60006020820190508181036000830152610be48184610b55565b905092915050565b600080fd5b600080fd5b7f4e487b7100000000000000000000000000000000000000000000000000000000600052604160045260246000fd5b610c2e82610a72565b810181811067ffffffffffffffff82111715610c4d57610c4c610bf6565b5b80604052505050565b6000610c60610961565b9050610c6c8282610c25565b919050565b600067ffffffffffffffff821115610c8c57610c8b610bf6565b5b610c9582610a72565b9050602081019050919050565b82818337600083830152505050565b6000610cc4610cbf84610c71565b610c56565b905082815260208101848484011115610ce057610cdf610bf1565b5b610ceb848285610ca2565b509392505050565b600082601f830112610d0857610d07610bec565b5b8135610d18848260208601610cb1565b91505092915050565b60008060408385031215610d3857610d3761096b565b5b600083013567ffffffffffffffff811115610d5657610d55610970565b5b610d6285828601610cf3565b9250506020610d73858286016109be565b9150509250929050565b600081519050919050565b600082825260208201905092915050565b6000819050602082019050919050565b6000610db58383610abc565b60208301905092915050565b6000602082019050919050565b6000610dd982610d7d565b610de38185610d88565b9350610dee83610d99565b8060005b83811015610e1f578151610e068882610da9565b9750610e1183610dc1565b925050600181019050610df2565b5085935050505092915050565b60006020820190508181036000830152610e468184610dce565b905092915050565b7f4e487b7100000000000000000000000000000000000000000000000000000000600052602260045260246000fd5b60006002820490506001821680610e9557607f821691505b602082108103610ea857610ea7610e4e565b5b50919050565b600082825260208201905092915050565b7f4f6e6c792061646d696e2063616e20706572666f726d2074686973206163746960008201527f6f6e000000000000000000000000000000000000000000000000000000000000602082015250565b6000610f1b602283610eae565b9150610f2682610ebf565b604082019050919050565b60006020820190508181036000830152610f4a81610f0e565b9050919050565b7f6f776e65727368697020646f6573206e6f742065786973740000000000000000600082015250565b6000610f87601883610eae565b9150610f9282610f51565b602082019050919050565b60006020820190508181036000830152610fb681610f7a565b9050919050565b7f4e487b7100000000000000000000000000000000000000000000000000000000600052603260045260246000fd5b7f4e487b7100000000000000000000000000000000000000000000000000000000600052601160045260246000fd5b600061102682610acb565b915061103183610acb565b925082820390508181111561104957611048610fec565b5b92915050565b7f4e487b7100000000000000000000000000000000000000000000000000000000600052603160045260246000fd5b600061108982610acb565b91507fffffffffffffffffffffffffffffffffffffffffffffffffffffffffffffffff82036110bb576110ba610fec565b5b600182019050919050565b7f6f6e6c79206d6f64646572732063616e207369676e0000000000000000000000600082015250565b60006110fc601583610eae565b9150611107826110c6565b602082019050919050565b6000602082019050818103600083015261112b816110ef565b9050919050565b60008190508160005260206000209050919050565b60006020601f8301049050919050565b600082821b905092915050565b6000600883026111947fffffffffffffffffffffffffffffffffffffffffffffffffffffffffffffffff82611157565b61119e8683611157565b95508019841693508086168417925050509392505050565b6000819050919050565b60006111db6111d66111d184610acb565b6111b6565b610acb565b9050919050565b6000819050919050565b6111f5836111c0565b611209611201826111e2565b848454611164565b825550505050565b600090565b61121e611211565b6112298184846111ec565b505050565b5b8181101561124d57611242600082611216565b60018101905061122f565b5050565b601f8211156112925761126381611132565b61126c84611147565b8101602085101561127b578190505b61128f61128785611147565b83018261122e565b50505b505050565b600082821c905092915050565b60006112b560001984600802611297565b1980831691505092915050565b60006112ce83836112a4565b9150826002028217905092915050565b6112e782610a2c565b67ffffffffffffffff811115611300576112ff610bf6565b5b61130a8254610e7d565b611315828285611251565b600060209050601f8311600181146113485760008415611336578287015190505b61134085826112c2565b8655506113a8565b601f19841661135686611132565b60005b8281101561137e57848901518255600182019150602085019450602081019050611359565b8683101561139b5784890151611397601f8916826112a4565b8355505b6001600288020188555050505b50505050505056fea2646970667358221220379ed124b39d882da3964fad410fed1136a588a7b97e954b50e901ba2046341664736f6c63430008130033",
  "linkReferences": {},
  "deployedLinkReferences": {}
}